---
title: dgb:decoderawtransaction \[POST\]
description: Return a JSON object representing the serialized, hex-encodedtransaction.
---

### Parameters


`hexstring` - string, required

The transaction hex string

`iswitness` - boolean, optional, default=depends on heuristic tests

Whether the transaction hex is a serialized witness transaction.

If iswitness is not present, heuristic tests will be used in decoding.

If true, only witness deserialization will be tried.

If false, only non-witness deserialization will be tried.

This boolean should reflect whether the transaction has inputs (e.g.
fully valid, or on-chain transactions), if known by the caller.

### Request

``` java
curl --location --request POST 'https://dgb.getblock.io/mainnet/' 
--header 'x-api-key: YOUR-API-KEY' 
--header 'Content-Type: application/json' 
--data-raw '{"jsonrpc": "2.0",
"method": "decoderawtransaction",
"params": ["010000000001010000000000000000000000000000000000000000000000000000000000000000ffffffff580426efcf00042d133b610cfabe6d6d4b6e5eda06373bc46000cf601b661f9243db16f482156a91d7c9008ca9a1d4c501000000000000000a2a6172e08a7c0100000a6b14363931303037343761363664363235343236363600000000020000000000000000266a24aa21a9ed47542e50fcec7a7b535c2b6a35cf4ac18722ad3289d9b90d037124862db8ec3e6c9770930b0000001976a9146f5cf1be10f3ad794eca67821fb280305b2900a188ac0120000000000000000000000000000000000000000000000000000000000000000000000000", null],
"id": "getblock.io"}'
```

###  Response

``` java
{
    "error": null,
    "id": "getblock.io",
    "result": {
        "txid": "4f0934ca5affc6069dc2a112357ef7a2afcdc40307f81ebeccd86e23fddfa2db",
        "hash": "040541a1ba635fc5df0529000b5085eddc19eabf679b3212fd6762efa4b5ac22",
        "version": 1,
        "size": 256,
        "vsize": 229,
        "weight": 916,
        "locktime": 0,
        "vin": [
            {
                "coinbase": "0426efcf00042d133b610cfabe6d6d4b6e5eda06373bc46000cf601b661f9243db16f482156a91d7c9008ca9a1d4c501000000000000000a2a6172e08a7c0100000a6b143639313030373437613636643632353432363636",
                "sequence": 0
            }
        ],
        "vout": [
            {
                "value": 0,
                "n": 0,
                "scriptPubKey": {
                    "asm": "OP_RETURN aa21a9ed47542e50fcec7a7b535c2b6a35cf4ac18722ad3289d9b90d037124862db8ec3e",
                    "hex": "6a24aa21a9ed47542e50fcec7a7b535c2b6a35cf4ac18722ad3289d9b90d037124862db8ec3e",
                    "type": "nulldata"
                }
            },
            {
                "value": 497.18269804,
                "n": 1,
                "scriptPubKey": {
                    "asm": "OP_DUP OP_HASH160 6f5cf1be10f3ad794eca67821fb280305b2900a1 OP_EQUALVERIFY OP_CHECKSIG",
                    "hex": "76a9146f5cf1be10f3ad794eca67821fb280305b2900a188ac",
                    "reqSigs": 1,
                    "type": "pubkeyhash",
                    "addresses": [
                        "DFHvtSCQRjfeEHX7JFhJ3JML8BihQ5DNMz"
                    ]
                }
            }
        ]
    }
}
```

